{
  "_format": "hh-sol-artifact-1",
  "contractName": "PrimeBooks",
  "sourceName": "contracts/PrimeBooks.sol",
  "abi": [
    {
      "inputs": [
        {
          "internalType": "contract Prime",
          "name": "_addr",
          "type": "address"
        }
      ],
      "stateMutability": "nonpayable",
      "type": "constructor"
    },
    {
      "anonymous": false,
      "inputs": [
        {
          "indexed": true,
          "internalType": "address",
          "name": "owner",
          "type": "address"
        },
        {
          "indexed": true,
          "internalType": "address",
          "name": "approved",
          "type": "address"
        },
        {
          "indexed": true,
          "internalType": "uint256",
          "name": "tokenId",
          "type": "uint256"
        }
      ],
      "name": "Approval",
      "type": "event"
    },
    {
      "anonymous": false,
      "inputs": [
        {
          "indexed": true,
          "internalType": "address",
          "name": "owner",
          "type": "address"
        },
        {
          "indexed": true,
          "internalType": "address",
          "name": "operator",
          "type": "address"
        },
        {
          "indexed": false,
          "internalType": "bool",
          "name": "approved",
          "type": "bool"
        }
      ],
      "name": "ApprovalForAll",
      "type": "event"
    },
    {
      "anonymous": false,
      "inputs": [
        {
          "indexed": false,
          "internalType": "address",
          "name": "_user",
          "type": "address"
        },
        {
          "indexed": false,
          "internalType": "uint256",
          "name": "_tokenId",
          "type": "uint256"
        }
      ],
      "name": "BookUploaded",
      "type": "event"
    },
    {
      "anonymous": false,
      "inputs": [
        {
          "indexed": false,
          "internalType": "address",
          "name": "_user",
          "type": "address"
        },
        {
          "indexed": false,
          "internalType": "string",
          "name": "title",
          "type": "string"
        },
        {
          "indexed": false,
          "internalType": "uint256",
          "name": "_tokenId",
          "type": "uint256"
        }
      ],
      "name": "ChapterUploaded",
      "type": "event"
    },
    {
      "anonymous": false,
      "inputs": [
        {
          "indexed": true,
          "internalType": "address",
          "name": "previousOwner",
          "type": "address"
        },
        {
          "indexed": true,
          "internalType": "address",
          "name": "newOwner",
          "type": "address"
        }
      ],
      "name": "OwnershipTransferred",
      "type": "event"
    },
    {
      "anonymous": false,
      "inputs": [
        {
          "indexed": true,
          "internalType": "address",
          "name": "from",
          "type": "address"
        },
        {
          "indexed": true,
          "internalType": "address",
          "name": "to",
          "type": "address"
        },
        {
          "indexed": true,
          "internalType": "uint256",
          "name": "tokenId",
          "type": "uint256"
        }
      ],
      "name": "Transfer",
      "type": "event"
    },
    {
      "inputs": [
        {
          "internalType": "uint256",
          "name": "",
          "type": "uint256"
        }
      ],
      "name": "allBooks",
      "outputs": [
        {
          "internalType": "uint256",
          "name": "book_id",
          "type": "uint256"
        },
        {
          "internalType": "string",
          "name": "title",
          "type": "string"
        },
        {
          "internalType": "string",
          "name": "synopsis",
          "type": "string"
        },
        {
          "internalType": "address",
          "name": "owner",
          "type": "address"
        },
        {
          "internalType": "string",
          "name": "author",
          "type": "string"
        },
        {
          "internalType": "string",
          "name": "cover",
          "type": "string"
        },
        {
          "internalType": "uint256",
          "name": "chapterPrice",
          "type": "uint256"
        }
      ],
      "stateMutability": "view",
      "type": "function"
    },
    {
      "inputs": [
        {
          "internalType": "address",
          "name": "to",
          "type": "address"
        },
        {
          "internalType": "uint256",
          "name": "tokenId",
          "type": "uint256"
        }
      ],
      "name": "approve",
      "outputs": [],
      "stateMutability": "nonpayable",
      "type": "function"
    },
    {
      "inputs": [
        {
          "internalType": "address",
          "name": "owner",
          "type": "address"
        }
      ],
      "name": "balanceOf",
      "outputs": [
        {
          "internalType": "uint256",
          "name": "",
          "type": "uint256"
        }
      ],
      "stateMutability": "view",
      "type": "function"
    },
    {
      "inputs": [],
      "name": "currentBookToken",
      "outputs": [
        {
          "internalType": "uint256",
          "name": "",
          "type": "uint256"
        }
      ],
      "stateMutability": "view",
      "type": "function"
    },
    {
      "inputs": [],
      "name": "currentChapterToken",
      "outputs": [
        {
          "internalType": "uint256",
          "name": "",
          "type": "uint256"
        }
      ],
      "stateMutability": "view",
      "type": "function"
    },
    {
      "inputs": [],
      "name": "destroy",
      "outputs": [],
      "stateMutability": "nonpayable",
      "type": "function"
    },
    {
      "inputs": [
        {
          "internalType": "uint256",
          "name": "tokenId",
          "type": "uint256"
        }
      ],
      "name": "getApproved",
      "outputs": [
        {
          "internalType": "address",
          "name": "",
          "type": "address"
        }
      ],
      "stateMutability": "view",
      "type": "function"
    },
    {
      "inputs": [
        {
          "internalType": "uint256",
          "name": "bookId",
          "type": "uint256"
        },
        {
          "internalType": "uint256",
          "name": "chapter",
          "type": "uint256"
        }
      ],
      "name": "getChapterSponsors",
      "outputs": [
        {
          "internalType": "address[]",
          "name": "",
          "type": "address[]"
        }
      ],
      "stateMutability": "view",
      "type": "function"
    },
    {
      "inputs": [
        {
          "internalType": "address",
          "name": "owner",
          "type": "address"
        },
        {
          "internalType": "address",
          "name": "operator",
          "type": "address"
        }
      ],
      "name": "isApprovedForAll",
      "outputs": [
        {
          "internalType": "bool",
          "name": "",
          "type": "bool"
        }
      ],
      "stateMutability": "view",
      "type": "function"
    },
    {
      "inputs": [
        {
          "internalType": "uint256",
          "name": "newPrice",
          "type": "uint256"
        },
        {
          "internalType": "uint256",
          "name": "bookId",
          "type": "uint256"
        }
      ],
      "name": "modifyChapterPrice",
      "outputs": [],
      "stateMutability": "nonpayable",
      "type": "function"
    },
    {
      "inputs": [],
      "name": "name",
      "outputs": [
        {
          "internalType": "string",
          "name": "",
          "type": "string"
        }
      ],
      "stateMutability": "view",
      "type": "function"
    },
    {
      "inputs": [],
      "name": "owner",
      "outputs": [
        {
          "internalType": "address",
          "name": "",
          "type": "address"
        }
      ],
      "stateMutability": "view",
      "type": "function"
    },
    {
      "inputs": [
        {
          "internalType": "uint256",
          "name": "tokenId",
          "type": "uint256"
        }
      ],
      "name": "ownerOf",
      "outputs": [
        {
          "internalType": "address",
          "name": "",
          "type": "address"
        }
      ],
      "stateMutability": "view",
      "type": "function"
    },
    {
      "inputs": [
        {
          "internalType": "uint256",
          "name": "bookId",
          "type": "uint256"
        },
        {
          "internalType": "uint256",
          "name": "chapter",
          "type": "uint256"
        }
      ],
      "name": "payForChapter",
      "outputs": [],
      "stateMutability": "nonpayable",
      "type": "function"
    },
    {
      "inputs": [],
      "name": "renounceOwnership",
      "outputs": [],
      "stateMutability": "nonpayable",
      "type": "function"
    },
    {
      "inputs": [
        {
          "internalType": "address",
          "name": "from",
          "type": "address"
        },
        {
          "internalType": "address",
          "name": "to",
          "type": "address"
        },
        {
          "internalType": "uint256",
          "name": "tokenId",
          "type": "uint256"
        }
      ],
      "name": "safeTransferFrom",
      "outputs": [],
      "stateMutability": "nonpayable",
      "type": "function"
    },
    {
      "inputs": [
        {
          "internalType": "address",
          "name": "from",
          "type": "address"
        },
        {
          "internalType": "address",
          "name": "to",
          "type": "address"
        },
        {
          "internalType": "uint256",
          "name": "tokenId",
          "type": "uint256"
        },
        {
          "internalType": "bytes",
          "name": "data",
          "type": "bytes"
        }
      ],
      "name": "safeTransferFrom",
      "outputs": [],
      "stateMutability": "nonpayable",
      "type": "function"
    },
    {
      "inputs": [
        {
          "internalType": "address",
          "name": "operator",
          "type": "address"
        },
        {
          "internalType": "bool",
          "name": "approved",
          "type": "bool"
        }
      ],
      "name": "setApprovalForAll",
      "outputs": [],
      "stateMutability": "nonpayable",
      "type": "function"
    },
    {
      "inputs": [
        {
          "internalType": "bytes4",
          "name": "interfaceId",
          "type": "bytes4"
        }
      ],
      "name": "supportsInterface",
      "outputs": [
        {
          "internalType": "bool",
          "name": "",
          "type": "bool"
        }
      ],
      "stateMutability": "view",
      "type": "function"
    },
    {
      "inputs": [],
      "name": "symbol",
      "outputs": [
        {
          "internalType": "string",
          "name": "",
          "type": "string"
        }
      ],
      "stateMutability": "view",
      "type": "function"
    },
    {
      "inputs": [],
      "name": "token",
      "outputs": [
        {
          "internalType": "contract Prime",
          "name": "",
          "type": "address"
        }
      ],
      "stateMutability": "view",
      "type": "function"
    },
    {
      "inputs": [
        {
          "internalType": "uint256",
          "name": "tokenId",
          "type": "uint256"
        }
      ],
      "name": "tokenURI",
      "outputs": [
        {
          "internalType": "string",
          "name": "",
          "type": "string"
        }
      ],
      "stateMutability": "view",
      "type": "function"
    },
    {
      "inputs": [
        {
          "internalType": "address",
          "name": "from",
          "type": "address"
        },
        {
          "internalType": "address",
          "name": "to",
          "type": "address"
        },
        {
          "internalType": "uint256",
          "name": "tokenId",
          "type": "uint256"
        }
      ],
      "name": "transferFrom",
      "outputs": [],
      "stateMutability": "nonpayable",
      "type": "function"
    },
    {
      "inputs": [
        {
          "internalType": "address",
          "name": "newOwner",
          "type": "address"
        }
      ],
      "name": "transferOwnership",
      "outputs": [],
      "stateMutability": "nonpayable",
      "type": "function"
    },
    {
      "inputs": [
        {
          "internalType": "string",
          "name": "title",
          "type": "string"
        },
        {
          "internalType": "string",
          "name": "synopsis",
          "type": "string"
        },
        {
          "internalType": "string",
          "name": "cover",
          "type": "string"
        },
        {
          "internalType": "string",
          "name": "author",
          "type": "string"
        }
      ],
      "name": "uploadBook",
      "outputs": [
        {
          "internalType": "uint256",
          "name": "",
          "type": "uint256"
        }
      ],
      "stateMutability": "nonpayable",
      "type": "function"
    },
    {
      "inputs": [
        {
          "internalType": "uint256",
          "name": "bookId",
          "type": "uint256"
        },
        {
          "internalType": "bool",
          "name": "paid",
          "type": "bool"
        },
        {
          "internalType": "uint256",
          "name": "chapter",
          "type": "uint256"
        },
        {
          "internalType": "string",
          "name": "title",
          "type": "string"
        }
      ],
      "name": "uploadChapter",
      "outputs": [
        {
          "internalType": "uint256",
          "name": "",
          "type": "uint256"
        }
      ],
      "stateMutability": "nonpayable",
      "type": "function"
    }
  ],
  "bytecode": "0x608060405260016201388a5560016201388b553480156200001f57600080fd5b5060405162002631380380620026318339810160408190526200004291620001e1565b60408051808201825260058152640aae0c4def60db1b6020808301918252835180850190945260038452620849eb60eb1b9084015281519192916200008a916000916200013b565b508051620000a09060019060208401906200013b565b505050620000bd620000b7620000e560201b60201c565b620000e9565b6201388c80546001600160a01b0319166001600160a01b03929092169190911790556200024e565b3390565b600680546001600160a01b038381166001600160a01b0319831681179093556040519116919082907f8be0079c531659141344cd1fd0a4f28419497f9722a3daafe3b4186f6b6457e090600090a35050565b828054620001499062000211565b90600052602060002090601f0160209004810192826200016d5760008555620001b8565b82601f106200018857805160ff1916838001178555620001b8565b82800160010185558215620001b8579182015b82811115620001b85782518255916020019190600101906200019b565b50620001c6929150620001ca565b5090565b5b80821115620001c65760008155600101620001cb565b600060208284031215620001f3578081fd5b81516001600160a01b03811681146200020a578182fd5b9392505050565b600181811c908216806200022657607f821691505b602082108114156200024857634e487b7160e01b600052602260045260246000fd5b50919050565b6123d3806200025e6000396000f3fe608060405234801561001057600080fd5b506004361061018e5760003560e01c806383197ef0116100de578063ac52773811610097578063d817357611610071578063d817357614610361578063e985e9c514610374578063f2fde38b146103b0578063fc0c546a146103c357600080fd5b8063ac5277381461031b578063b88d4fde1461033b578063c87b56dd1461034e57600080fd5b806383197ef0146102b65780638343f04c146102be5780638da5cb5b146102c957806395d89b41146102da5780639bd44658146102e2578063a22cb4651461030857600080fd5b8063403d33d11161014b57806365d8f9731161012557806365d8f9731461027557806370a0823114610288578063715018a61461029b57806378f7acb2146102a357600080fd5b8063403d33d11461023c57806342842e0e1461024f5780636352211e1461026257600080fd5b806301ffc9a71461019357806306fdde03146101bb578063081812fc146101d0578063095ea7b3146101fb57806323b872dd1461021057806336cb5a0814610223575b600080fd5b6101a66101a1366004611df7565b6103d8565b60405190151581526020015b60405180910390f35b6101c361042a565b6040516101b29190612134565b6101e36101de366004611eee565b6104bc565b6040516001600160a01b0390911681526020016101b2565b61020e610209366004611db2565b6104e3565b005b61020e61021e366004611c6c565b6105fe565b61022e6201388b5481565b6040519081526020016101b2565b61020e61024a366004611f6e565b61062f565b61020e61025d366004611c6c565b6106e8565b6101e3610270366004611eee565b610703565b61022e610283366004611e2f565b610763565b61022e610296366004611c20565b6108de565b61020e610964565b61020e6102b1366004611f6e565b610978565b61020e610b2b565b61022e6201388a5481565b6006546001600160a01b03166101e3565b6101c3610b41565b6102f56102f0366004611eee565b610b50565b6040516101b297969594939291906121e7565b61020e610316366004611d7c565b610dc2565b61032e610329366004611f6e565b610dd1565b6040516101b291906120e7565b61020e610349366004611ca7565b610e82565b6101c361035c366004611eee565b610eba565b61022e61036f366004611f06565b610f2e565b6101a6610382366004611c3a565b6001600160a01b03918216600090815260056020908152604080832093909416825291909152205460ff1690565b61020e6103be366004611c20565b611196565b6201388c546101e3906001600160a01b031681565b60006001600160e01b031982166380ac58cd60e01b148061040957506001600160e01b03198216635b5e139f60e01b145b8061042457506301ffc9a760e01b6001600160e01b03198316145b92915050565b606060008054610439906122cd565b80601f0160208091040260200160405190810160405280929190818152602001828054610465906122cd565b80156104b25780601f10610487576101008083540402835291602001916104b2565b820191906000526020600020905b81548152906001019060200180831161049557829003601f168201915b5050505050905090565b60006104c78261120f565b506000908152600460205260409020546001600160a01b031690565b60006104ee82610703565b9050806001600160a01b0316836001600160a01b031614156105615760405162461bcd60e51b815260206004820152602160248201527f4552433732313a20617070726f76616c20746f2063757272656e74206f776e656044820152603960f91b60648201526084015b60405180910390fd5b336001600160a01b038216148061057d575061057d8133610382565b6105ef5760405162461bcd60e51b815260206004820152603e60248201527f4552433732313a20617070726f76652063616c6c6572206973206e6f7420746f60448201527f6b656e206f776e6572206e6f7220617070726f76656420666f7220616c6c00006064820152608401610558565b6105f9838361126e565b505050565b61060833826112dc565b6106245760405162461bcd60e51b815260040161055890612199565b6105f983838361135b565b6000600a82612710811061065357634e487b7160e01b600052603260045260246000fd5b60080201600401546001600160a01b031690503381146106b55760405162461bcd60e51b815260206004820152601760248201527f796f7520646f6e2774206f776e207468697320626f6f6b0000000000000000006044820152606401610558565b82600a8361271081106106d857634e487b7160e01b600052603260045260246000fd5b6008020160070181905550505050565b6105f983838360405180602001604052806000815250610e82565b6000818152600260205260408120546001600160a01b0316806104245760405162461bcd60e51b8152602060048201526018602482015277115490cdcc8c4e881a5b9d985b1a59081d1bdad95b88125160421b6044820152606401610558565b6000610773600780546001019055565b600061077e60075490565b905061078a33826114f7565b3360009081526008602052604081208261271081106107b957634e487b7160e01b600052603260045260246000fd5b6008020190506000600a8361271081106107e357634e487b7160e01b600052603260045260246000fd5b8484556008020190506107fa600183018d8d611a5b565b50610809600283018b8b611a5b565b506004820180546001600160a01b0319163317905561082c600683018989611a5b565b5061083b600583018787611a5b565b5082815561084d600182018d8d611a5b565b5061085c600282018b8b611a5b565b506004810180546001600160a01b0319163317905561087f600682018989611a5b565b5061088e600582018787611a5b565b5060408051338152602081018590527f1dd230690636bb5977324614e6efa253303d3e99ea329225c15cfc83d3aa4f10910160405180910390a150506201388a8190559998505050505050505050565b60006001600160a01b0382166109485760405162461bcd60e51b815260206004820152602960248201527f4552433732313a2061646472657373207a65726f206973206e6f7420612076616044820152683634b21037bbb732b960b91b6064820152608401610558565b506001600160a01b031660009081526003602052604090205490565b61096c611511565b610976600061156b565b565b6000600a83612710811061099c57634e487b7160e01b600052603260045260246000fd5b60080201600701546201388c549091506000906001600160a01b031663412664ae600a8661271081106109df57634e487b7160e01b600052603260045260246000fd5b6008020160049081015460405160e084901b6001600160e01b03191681526001600160a01b039091169181019190915260248101859052604401602060405180830381600087803b158015610a3357600080fd5b505af1158015610a47573d6000803e3d6000fd5b505050506040513d601f19601f82011682018060405250810190610a6b9190611ddb565b905080610aba5760405162461bcd60e51b815260206004820152601960248201527f546f6b656e7320776572656e3b74207472616e736665726564000000000000006044820152606401610558565b6000848152600960205260409020610ad360018561228a565b81548110610af157634e487b7160e01b600052603260045260246000fd5b60009182526020808320600260049093020191909101805460018101825590835291200180546001600160a01b0319163317905550505050565b610b33611511565b6006546001600160a01b0316ff5b606060018054610439906122cd565b600a816127108110610b6157600080fd5b60080201805460018201805491935090610b7a906122cd565b80601f0160208091040260200160405190810160405280929190818152602001828054610ba6906122cd565b8015610bf35780601f10610bc857610100808354040283529160200191610bf3565b820191906000526020600020905b815481529060010190602001808311610bd657829003601f168201915b505050505090806002018054610c08906122cd565b80601f0160208091040260200160405190810160405280929190818152602001828054610c34906122cd565b8015610c815780601f10610c5657610100808354040283529160200191610c81565b820191906000526020600020905b815481529060010190602001808311610c6457829003601f168201915b505050600484015460058501805494956001600160a01b03909216949193509150610cab906122cd565b80601f0160208091040260200160405190810160405280929190818152602001828054610cd7906122cd565b8015610d245780601f10610cf957610100808354040283529160200191610d24565b820191906000526020600020905b815481529060010190602001808311610d0757829003601f168201915b505050505090806006018054610d39906122cd565b80601f0160208091040260200160405190810160405280929190818152602001828054610d65906122cd565b8015610db25780601f10610d8757610100808354040283529160200191610db2565b820191906000526020600020905b815481529060010190602001808311610d9557829003601f168201915b5050505050908060070154905087565b610dcd3383836115bd565b5050565b600082815260096020526040812060609190610dee60018561228a565b81548110610e0c57634e487b7160e01b600052603260045260246000fd5b9060005260206000209060040201600201905080805480602002602001604051908101604052809291908181526020018280548015610e7457602002820191906000526020600020905b81546001600160a01b03168152600190910190602001808311610e56575b505050505091505092915050565b610e8c33836112dc565b610ea85760405162461bcd60e51b815260040161055890612199565b610eb48484848461168c565b50505050565b6060610ec58261120f565b6000610edc60408051602081019091526000815290565b90506000815111610efc5760405180602001604052806000815250610f27565b80610f06846116bf565b604051602001610f17929190611fbb565b6040516020818303038152906040525b9392505050565b6000610f3e600780546001019055565b6000610f4960075490565b9050610f5533826114f7565b6040805160a081018252828152336020808301919091528815158284015282516000808252918101909352916060820190815260200186868080601f016020809104026020016040519081016040528093929190818152602001838380828437600092018290525093909452505033815260086020526040902091925082919050896127108110610ff657634e487b7160e01b600052603260045260246000fd5b60008981526003600892909202929092010160209081526040918290208351815583820151600182018054948601511515600160a01b026001600160a81b03199095166001600160a01b039092169190911793909317909255606083015180516110669260028501920190611adf565b5060808201518051611082916003840191602090910190611b34565b5050506000888152600960209081526040808320805460018181018355918552938390208551600490950201938455848301519084018054928601511515600160a01b026001600160a81b03199093166001600160a01b039092169190911791909117905560608301518051849392611102926002850192910190611adf565b506080820151805161111e916003840191602090910190611b34565b5050507f66cbec024f2e18000f6f4116c4cf13fffc865dabb1edc09ab5235692bec8644633600a8a612710811061116557634e487b7160e01b600052603260045260246000fd5b600802016001018460405161117c93929190612027565b60405180910390a1506201388b8190559695505050505050565b61119e611511565b6001600160a01b0381166112035760405162461bcd60e51b815260206004820152602660248201527f4f776e61626c653a206e6577206f776e657220697320746865207a65726f206160448201526564647265737360d01b6064820152608401610558565b61120c8161156b565b50565b6000818152600260205260409020546001600160a01b031661120c5760405162461bcd60e51b8152602060048201526018602482015277115490cdcc8c4e881a5b9d985b1a59081d1bdad95b88125160421b6044820152606401610558565b600081815260046020526040902080546001600160a01b0319166001600160a01b03841690811790915581906112a382610703565b6001600160a01b03167f8c5be1e5ebec7d5bd14f71427d1e84f3dd0314c0f7b2291e5b200ac8c7c3b92560405160405180910390a45050565b6000806112e883610703565b9050806001600160a01b0316846001600160a01b0316148061132f57506001600160a01b0380821660009081526005602090815260408083209388168352929052205460ff165b806113535750836001600160a01b0316611348846104bc565b6001600160a01b0316145b949350505050565b826001600160a01b031661136e82610703565b6001600160a01b0316146113d25760405162461bcd60e51b815260206004820152602560248201527f4552433732313a207472616e736665722066726f6d20696e636f72726563742060448201526437bbb732b960d91b6064820152608401610558565b6001600160a01b0382166114345760405162461bcd60e51b8152602060048201526024808201527f4552433732313a207472616e7366657220746f20746865207a65726f206164646044820152637265737360e01b6064820152608401610558565b61143f60008261126e565b6001600160a01b038316600090815260036020526040812080546001929061146890849061228a565b90915550506001600160a01b038216600090815260036020526040812080546001929061149690849061225e565b909155505060008181526002602052604080822080546001600160a01b0319166001600160a01b0386811691821790925591518493918716917fddf252ad1be2c89b69c2b068fc378daa952ba7f163c4a11628f55a4df523b3ef91a4505050565b610dcd8282604051806020016040528060008152506117d9565b6006546001600160a01b031633146109765760405162461bcd60e51b815260206004820181905260248201527f4f776e61626c653a2063616c6c6572206973206e6f7420746865206f776e65726044820152606401610558565b600680546001600160a01b038381166001600160a01b0319831681179093556040519116919082907f8be0079c531659141344cd1fd0a4f28419497f9722a3daafe3b4186f6b6457e090600090a35050565b816001600160a01b0316836001600160a01b0316141561161f5760405162461bcd60e51b815260206004820152601960248201527f4552433732313a20617070726f766520746f2063616c6c6572000000000000006044820152606401610558565b6001600160a01b03838116600081815260056020908152604080832094871680845294825291829020805460ff191686151590811790915591519182527f17307eab39ab6107e8899845ad3d59bd9653f200f220920489ca2b5937696c31910160405180910390a3505050565b61169784848461135b565b6116a38484848461180c565b610eb45760405162461bcd60e51b815260040161055890612147565b6060816116e35750506040805180820190915260018152600360fc1b602082015290565b8160005b811561170d57806116f781612308565b91506117069050600a83612276565b91506116e7565b60008167ffffffffffffffff81111561173657634e487b7160e01b600052604160045260246000fd5b6040519080825280601f01601f191660200182016040528015611760576020820181803683370190505b5090505b84156113535761177560018361228a565b9150611782600a86612323565b61178d90603061225e565b60f81b8183815181106117b057634e487b7160e01b600052603260045260246000fd5b60200101906001600160f81b031916908160001a9053506117d2600a86612276565b9450611764565b6117e38383611919565b6117f0600084848461180c565b6105f95760405162461bcd60e51b815260040161055890612147565b60006001600160a01b0384163b1561190e57604051630a85bd0160e11b81526001600160a01b0385169063150b7a0290611850903390899088908890600401611fea565b602060405180830381600087803b15801561186a57600080fd5b505af192505050801561189a575060408051601f3d908101601f1916820190925261189791810190611e13565b60015b6118f4573d8080156118c8576040519150601f19603f3d011682016040523d82523d6000602084013e6118cd565b606091505b5080516118ec5760405162461bcd60e51b815260040161055890612147565b805181602001fd5b6001600160e01b031916630a85bd0160e11b149050611353565b506001949350505050565b6001600160a01b03821661196f5760405162461bcd60e51b815260206004820181905260248201527f4552433732313a206d696e7420746f20746865207a65726f20616464726573736044820152606401610558565b6000818152600260205260409020546001600160a01b0316156119d45760405162461bcd60e51b815260206004820152601c60248201527f4552433732313a20746f6b656e20616c7265616479206d696e746564000000006044820152606401610558565b6001600160a01b03821660009081526003602052604081208054600192906119fd90849061225e565b909155505060008181526002602052604080822080546001600160a01b0319166001600160a01b03861690811790915590518392907fddf252ad1be2c89b69c2b068fc378daa952ba7f163c4a11628f55a4df523b3ef908290a45050565b828054611a67906122cd565b90600052602060002090601f016020900481019282611a895760008555611acf565b82601f10611aa25782800160ff19823516178555611acf565b82800160010185558215611acf579182015b82811115611acf578235825591602001919060010190611ab4565b50611adb929150611ba8565b5090565b828054828255906000526020600020908101928215611acf579160200282015b82811115611acf57825182546001600160a01b0319166001600160a01b03909116178255602090920191600190910190611aff565b828054611b40906122cd565b90600052602060002090601f016020900481019282611b625760008555611acf565b82601f10611b7b57805160ff1916838001178555611acf565b82800160010185558215611acf579182015b82811115611acf578251825591602001919060010190611b8d565b5b80821115611adb5760008155600101611ba9565b80356001600160a01b0381168114611bd457600080fd5b919050565b60008083601f840112611bea578182fd5b50813567ffffffffffffffff811115611c01578182fd5b602083019150836020828501011115611c1957600080fd5b9250929050565b600060208284031215611c31578081fd5b610f2782611bbd565b60008060408385031215611c4c578081fd5b611c5583611bbd565b9150611c6360208401611bbd565b90509250929050565b600080600060608486031215611c80578081fd5b611c8984611bbd565b9250611c9760208501611bbd565b9150604084013590509250925092565b60008060008060808587031215611cbc578081fd5b611cc585611bbd565b9350611cd360208601611bbd565b925060408501359150606085013567ffffffffffffffff80821115611cf6578283fd5b818701915087601f830112611d09578283fd5b813581811115611d1b57611d1b612363565b604051601f8201601f19908116603f01168101908382118183101715611d4357611d43612363565b816040528281528a6020848701011115611d5b578586fd5b82602086016020830137918201602001949094529598949750929550505050565b60008060408385031215611d8e578182fd5b611d9783611bbd565b91506020830135611da781612379565b809150509250929050565b60008060408385031215611dc4578182fd5b611dcd83611bbd565b946020939093013593505050565b600060208284031215611dec578081fd5b8151610f2781612379565b600060208284031215611e08578081fd5b8135610f2781612387565b600060208284031215611e24578081fd5b8151610f2781612387565b6000806000806000806000806080898b031215611e4a578384fd5b883567ffffffffffffffff80821115611e61578586fd5b611e6d8c838d01611bd9565b909a50985060208b0135915080821115611e85578586fd5b611e918c838d01611bd9565b909850965060408b0135915080821115611ea9578586fd5b611eb58c838d01611bd9565b909650945060608b0135915080821115611ecd578384fd5b50611eda8b828c01611bd9565b999c989b5096995094979396929594505050565b600060208284031215611eff578081fd5b5035919050565b600080600080600060808688031215611f1d578081fd5b853594506020860135611f2f81612379565b935060408601359250606086013567ffffffffffffffff811115611f51578182fd5b611f5d88828901611bd9565b969995985093965092949392505050565b60008060408385031215611f80578182fd5b50508035926020909101359150565b60008151808452611fa78160208601602086016122a1565b601f01601f19169290920160200192915050565b60008351611fcd8184602088016122a1565b835190830190611fe18183602088016122a1565b01949350505050565b6001600160a01b038581168252841660208201526040810183905260806060820181905260009061201d90830184611f8f565b9695505050505050565b60018060a01b03841681526000602060608184015281855483600182811c91508083168061205657607f831692505b85831081141561207457634e487b7160e01b87526022600452602487fd5b606088018390526080880181801561209357600181146120a4576120ce565b60ff198616825287820196506120ce565b60008c815260209020895b868110156120c8578154848201529085019089016120af565b83019750505b5050505050508092505050826040830152949350505050565b6020808252825182820181905260009190848201906040850190845b818110156121285783516001600160a01b031683529284019291840191600101612103565b50909695505050505050565b602081526000610f276020830184611f8f565b60208082526032908201527f4552433732313a207472616e7366657220746f206e6f6e20455243373231526560408201527131b2b4bb32b91034b6b83632b6b2b73a32b960711b606082015260800190565b6020808252602e908201527f4552433732313a2063616c6c6572206973206e6f7420746f6b656e206f776e6560408201526d1c881b9bdc88185c1c1c9bdd995960921b606082015260800190565b87815260e06020820152600061220060e0830189611f8f565b82810360408401526122128189611f8f565b6001600160a01b0388166060850152838103608085015290506122358187611f8f565b905082810360a08401526122498186611f8f565b9150508260c083015298975050505050505050565b6000821982111561227157612271612337565b500190565b6000826122855761228561234d565b500490565b60008282101561229c5761229c612337565b500390565b60005b838110156122bc5781810151838201526020016122a4565b83811115610eb45750506000910152565b600181811c908216806122e157607f821691505b6020821081141561230257634e487b7160e01b600052602260045260246000fd5b50919050565b600060001982141561231c5761231c612337565b5060010190565b6000826123325761233261234d565b500690565b634e487b7160e01b600052601160045260246000fd5b634e487b7160e01b600052601260045260246000fd5b634e487b7160e01b600052604160045260246000fd5b801515811461120c57600080fd5b6001600160e01b03198116811461120c57600080fdfea2646970667358221220c57c9c80a2d077f5dbfd7dbbfc7683e6612963644ee5b9b4cbf9e5723a35770164736f6c63430008040033",
  "linkReferences": {},
  "deployedLinkReferences": {}
}