{
  "_format": "hh-sol-artifact-1",
  "contractName": "Prime",
  "sourceName": "contracts/Prime.sol",
  "abi": [
    {
      "inputs": [],
      "stateMutability": "nonpayable",
      "type": "constructor"
    },
    {
      "anonymous": false,
      "inputs": [
        {
          "indexed": true,
          "internalType": "address",
          "name": "owner",
          "type": "address"
        },
        {
          "indexed": true,
          "internalType": "address",
          "name": "spender",
          "type": "address"
        },
        {
          "indexed": false,
          "internalType": "uint256",
          "name": "value",
          "type": "uint256"
        }
      ],
      "name": "Approval",
      "type": "event"
    },
    {
      "anonymous": false,
      "inputs": [
        {
          "indexed": true,
          "internalType": "address",
          "name": "previousOwner",
          "type": "address"
        },
        {
          "indexed": true,
          "internalType": "address",
          "name": "newOwner",
          "type": "address"
        }
      ],
      "name": "OwnershipTransferred",
      "type": "event"
    },
    {
      "anonymous": false,
      "inputs": [],
      "name": "TokensBought",
      "type": "event"
    },
    {
      "anonymous": false,
      "inputs": [
        {
          "indexed": true,
          "internalType": "address",
          "name": "from",
          "type": "address"
        },
        {
          "indexed": true,
          "internalType": "address",
          "name": "to",
          "type": "address"
        },
        {
          "indexed": false,
          "internalType": "uint256",
          "name": "value",
          "type": "uint256"
        }
      ],
      "name": "Transfer",
      "type": "event"
    },
    {
      "stateMutability": "payable",
      "type": "fallback"
    },
    {
      "inputs": [
        {
          "internalType": "address",
          "name": "owner",
          "type": "address"
        },
        {
          "internalType": "address",
          "name": "spender",
          "type": "address"
        }
      ],
      "name": "allowance",
      "outputs": [
        {
          "internalType": "uint256",
          "name": "",
          "type": "uint256"
        }
      ],
      "stateMutability": "view",
      "type": "function"
    },
    {
      "inputs": [
        {
          "internalType": "address",
          "name": "spender",
          "type": "address"
        },
        {
          "internalType": "uint256",
          "name": "amount",
          "type": "uint256"
        }
      ],
      "name": "approve",
      "outputs": [
        {
          "internalType": "bool",
          "name": "",
          "type": "bool"
        }
      ],
      "stateMutability": "nonpayable",
      "type": "function"
    },
    {
      "inputs": [
        {
          "internalType": "address",
          "name": "account",
          "type": "address"
        }
      ],
      "name": "balanceOf",
      "outputs": [
        {
          "internalType": "uint256",
          "name": "",
          "type": "uint256"
        }
      ],
      "stateMutability": "view",
      "type": "function"
    },
    {
      "inputs": [],
      "name": "buyTokens",
      "outputs": [],
      "stateMutability": "payable",
      "type": "function"
    },
    {
      "inputs": [],
      "name": "decimals",
      "outputs": [
        {
          "internalType": "uint8",
          "name": "",
          "type": "uint8"
        }
      ],
      "stateMutability": "view",
      "type": "function"
    },
    {
      "inputs": [
        {
          "internalType": "address",
          "name": "spender",
          "type": "address"
        },
        {
          "internalType": "uint256",
          "name": "subtractedValue",
          "type": "uint256"
        }
      ],
      "name": "decreaseAllowance",
      "outputs": [
        {
          "internalType": "bool",
          "name": "",
          "type": "bool"
        }
      ],
      "stateMutability": "nonpayable",
      "type": "function"
    },
    {
      "inputs": [
        {
          "internalType": "address",
          "name": "_user",
          "type": "address"
        }
      ],
      "name": "getEthBalance",
      "outputs": [
        {
          "internalType": "uint256",
          "name": "",
          "type": "uint256"
        }
      ],
      "stateMutability": "view",
      "type": "function"
    },
    {
      "inputs": [
        {
          "internalType": "address",
          "name": "spender",
          "type": "address"
        },
        {
          "internalType": "uint256",
          "name": "addedValue",
          "type": "uint256"
        }
      ],
      "name": "increaseAllowance",
      "outputs": [
        {
          "internalType": "bool",
          "name": "",
          "type": "bool"
        }
      ],
      "stateMutability": "nonpayable",
      "type": "function"
    },
    {
      "inputs": [
        {
          "internalType": "uint256",
          "name": "amount",
          "type": "uint256"
        }
      ],
      "name": "modifyTokenBuyPrice",
      "outputs": [],
      "stateMutability": "nonpayable",
      "type": "function"
    },
    {
      "inputs": [],
      "name": "name",
      "outputs": [
        {
          "internalType": "string",
          "name": "",
          "type": "string"
        }
      ],
      "stateMutability": "view",
      "type": "function"
    },
    {
      "inputs": [],
      "name": "owner",
      "outputs": [
        {
          "internalType": "address",
          "name": "",
          "type": "address"
        }
      ],
      "stateMutability": "view",
      "type": "function"
    },
    {
      "inputs": [],
      "name": "renounceOwnership",
      "outputs": [],
      "stateMutability": "nonpayable",
      "type": "function"
    },
    {
      "inputs": [
        {
          "internalType": "uint256",
          "name": "amount",
          "type": "uint256"
        }
      ],
      "name": "sellToken",
      "outputs": [],
      "stateMutability": "payable",
      "type": "function"
    },
    {
      "inputs": [
        {
          "internalType": "address",
          "name": "_to",
          "type": "address"
        },
        {
          "internalType": "uint256",
          "name": "amount",
          "type": "uint256"
        }
      ],
      "name": "sendToken",
      "outputs": [
        {
          "internalType": "bool",
          "name": "",
          "type": "bool"
        }
      ],
      "stateMutability": "nonpayable",
      "type": "function"
    },
    {
      "inputs": [],
      "name": "symbol",
      "outputs": [
        {
          "internalType": "string",
          "name": "",
          "type": "string"
        }
      ],
      "stateMutability": "view",
      "type": "function"
    },
    {
      "inputs": [],
      "name": "tokenPrice",
      "outputs": [
        {
          "internalType": "uint256",
          "name": "",
          "type": "uint256"
        }
      ],
      "stateMutability": "view",
      "type": "function"
    },
    {
      "inputs": [],
      "name": "totalSupply",
      "outputs": [
        {
          "internalType": "uint256",
          "name": "",
          "type": "uint256"
        }
      ],
      "stateMutability": "view",
      "type": "function"
    },
    {
      "inputs": [
        {
          "internalType": "address",
          "name": "to",
          "type": "address"
        },
        {
          "internalType": "uint256",
          "name": "amount",
          "type": "uint256"
        }
      ],
      "name": "transfer",
      "outputs": [
        {
          "internalType": "bool",
          "name": "",
          "type": "bool"
        }
      ],
      "stateMutability": "nonpayable",
      "type": "function"
    },
    {
      "inputs": [
        {
          "internalType": "address",
          "name": "from",
          "type": "address"
        },
        {
          "internalType": "address",
          "name": "to",
          "type": "address"
        },
        {
          "internalType": "uint256",
          "name": "amount",
          "type": "uint256"
        }
      ],
      "name": "transferFrom",
      "outputs": [
        {
          "internalType": "bool",
          "name": "",
          "type": "bool"
        }
      ],
      "stateMutability": "nonpayable",
      "type": "function"
    },
    {
      "inputs": [
        {
          "internalType": "address",
          "name": "newOwner",
          "type": "address"
        }
      ],
      "name": "transferOwnership",
      "outputs": [],
      "stateMutability": "nonpayable",
      "type": "function"
    },
    {
      "stateMutability": "payable",
      "type": "receive"
    }
  ],
  "bytecode": "0x608060405266038d7ea4c680006006556209c720600a553480156200002357600080fd5b5060405180604001604052806006815260200165141c9a5b585b60d21b8152506040518060400160405280600381526020016250524960e81b81525081600390805190602001906200007792919062000203565b5080516200008d90600490602084019062000203565b505050620000aa620000a4620000c560201b60201c565b620000c9565b620000bf33683635c9adc5dea000006200011b565b6200030b565b3390565b600580546001600160a01b038381166001600160a01b0319831681179093556040519116919082907f8be0079c531659141344cd1fd0a4f28419497f9722a3daafe3b4186f6b6457e090600090a35050565b6001600160a01b038216620001765760405162461bcd60e51b815260206004820152601f60248201527f45524332303a206d696e7420746f20746865207a65726f206164647265737300604482015260640160405180910390fd5b80600260008282546200018a9190620002a9565b90915550506001600160a01b03821660009081526020819052604081208054839290620001b9908490620002a9565b90915550506040518181526001600160a01b038316906000907fddf252ad1be2c89b69c2b068fc378daa952ba7f163c4a11628f55a4df523b3ef9060200160405180910390a35050565b8280546200021190620002ce565b90600052602060002090601f01602090048101928262000235576000855562000280565b82601f106200025057805160ff191683800117855562000280565b8280016001018555821562000280579182015b828111156200028057825182559160200191906001019062000263565b506200028e92915062000292565b5090565b5b808211156200028e576000815560010162000293565b60008219821115620002c957634e487b7160e01b81526011600452602481fd5b500190565b600181811c90821680620002e357607f821691505b602082108114156200030557634e487b7160e01b600052602260045260246000fd5b50919050565b61102c806200031b6000396000f3fe6080604052600436106101235760003560e01c8063715018a6116100a0578063a457c2d711610064578063a457c2d714610359578063a9059cbb14610379578063d0febe4c14610399578063dd62ed3e146103a1578063f2fde38b146103c157610158565b8063715018a6146102d15780637ff9b596146102e6578063834dc984146102fc5780638da5cb5b1461031c57806395d89b411461034457610158565b8063313ce567116100e7578063313ce567146102175780633950935114610233578063412664ae146102535780634d2301cc1461027357806370a082311461029b57610158565b806306fdde0314610168578063095ea7b31461019357806318160ddd146101c35780632397e4d7146101e257806323b872dd146101f757610158565b36610158576000600654346101389190610f66565b90506101553361015083670de0b6b3a7640000610f86565b6103e1565b50005b6000600654346101389190610f66565b34801561017457600080fd5b5061017d6104c5565b60405161018a9190610efb565b60405180910390f35b34801561019f57600080fd5b506101b36101ae366004610eba565b610557565b604051901515815260200161018a565b3480156101cf57600080fd5b506002545b60405190815260200161018a565b6101f56101f0366004610ee3565b61056f565b005b34801561020357600080fd5b506101b3610212366004610e7f565b610773565b34801561022357600080fd5b506040516012815260200161018a565b34801561023f57600080fd5b506101b361024e366004610eba565b610797565b34801561025f57600080fd5b506101b361026e366004610eba565b6107b9565b34801561027f57600080fd5b506101d461028e366004610e2c565b6001600160a01b03163190565b3480156102a757600080fd5b506101d46102b6366004610e2c565b6001600160a01b031660009081526020819052604090205490565b3480156102dd57600080fd5b506101f5610834565b3480156102f257600080fd5b506101d460065481565b34801561030857600080fd5b506101f5610317366004610ee3565b610848565b34801561032857600080fd5b506005546040516001600160a01b03909116815260200161018a565b34801561035057600080fd5b5061017d610868565b34801561036557600080fd5b506101b3610374366004610eba565b610877565b34801561038557600080fd5b506101b3610394366004610eba565b6108f2565b6101f5610900565b3480156103ad57600080fd5b506101d46103bc366004610e4d565b610954565b3480156103cd57600080fd5b506101f56103dc366004610e2c565b61097f565b6001600160a01b03821661043c5760405162461bcd60e51b815260206004820152601f60248201527f45524332303a206d696e7420746f20746865207a65726f20616464726573730060448201526064015b60405180910390fd5b806002600082825461044e9190610f4e565b90915550506001600160a01b0382166000908152602081905260408120805483929061047b908490610f4e565b90915550506040518181526001600160a01b038316906000907fddf252ad1be2c89b69c2b068fc378daa952ba7f163c4a11628f55a4df523b3ef9060200160405180910390a35050565b6060600380546104d490610fa5565b80601f016020809104026020016040519081016040528092919081815260200182805461050090610fa5565b801561054d5780601f106105225761010080835404028352916020019161054d565b820191906000526020600020905b81548152906001019060200180831161053057829003601f168201915b5050505050905090565b6000336105658185856109f8565b5060019392505050565b600081116105b85760405162461bcd60e51b8152602060048201526016602482015275446f6e277420796f75206861766520746f6b656e733f60501b6044820152606401610433565b33600090815260208190526040902054818110156106125760405162461bcd60e51b8152602060048201526017602482015276596f75722062616c616e636520697320746f6f206c6f7760481b6044820152606401610433565b6000600654836106229190610f86565b905047818110156106755760405162461bcd60e51b815260206004820152601f60248201527f436f6e7261637420646f65736e2774206861766520656e6f75676820457468006044820152606401610433565b600061068d3061039487670de0b6b3a7640000610f86565b9050806106dc5760405162461bcd60e51b815260206004820152601860248201527f4661696c656420746f207265636569766520746f6b656e7300000000000000006044820152606401610433565b604051600090339085908381818185875af1925050503d806000811461071e576040519150601f19603f3d011682016040523d82523d6000602084013e610723565b606091505b505090508061076b5760405162461bcd60e51b81526020600482015260146024820152732330b4b632b2103a379039b2b7321022ba3432b960611b6044820152606401610433565b505050505050565b600033610781858285610b1c565b61078c858585610b96565b506001949350505050565b6000336105658185856107aa8383610954565b6107b49190610f4e565b6109f8565b33600090815260208190526040812054828110156108135760405162461bcd60e51b8152602060048201526017602482015276596f75722062616c616e636520697320746f6f206c6f7760481b6044820152606401610433565b600061082b8561039486670de0b6b3a7640000610f86565b95945050505050565b61083c610d64565b6108466000610dbe565b565b610850610d64565b61086281670de0b6b3a7640000610f86565b60065550565b6060600480546104d490610fa5565b600033816108858286610954565b9050838110156108e55760405162461bcd60e51b815260206004820152602560248201527f45524332303a2064656372656173656420616c6c6f77616e63652062656c6f77604482015264207a65726f60d81b6064820152608401610433565b61078c82868684036109f8565b600033610565818585610b96565b6000600654346109109190610f66565b90506109283361015083670de0b6b3a7640000610f86565b6040517f96425b7a720187cf6405eb681811f71b1e724ca847ca9e336ef36a39f45c503890600090a150565b6001600160a01b03918216600090815260016020908152604080832093909416825291909152205490565b610987610d64565b6001600160a01b0381166109ec5760405162461bcd60e51b815260206004820152602660248201527f4f776e61626c653a206e6577206f776e657220697320746865207a65726f206160448201526564647265737360d01b6064820152608401610433565b6109f581610dbe565b50565b6001600160a01b038316610a5a5760405162461bcd60e51b8152602060048201526024808201527f45524332303a20617070726f76652066726f6d20746865207a65726f206164646044820152637265737360e01b6064820152608401610433565b6001600160a01b038216610abb5760405162461bcd60e51b815260206004820152602260248201527f45524332303a20617070726f766520746f20746865207a65726f206164647265604482015261737360f01b6064820152608401610433565b6001600160a01b0383811660008181526001602090815260408083209487168084529482529182902085905590518481527f8c5be1e5ebec7d5bd14f71427d1e84f3dd0314c0f7b2291e5b200ac8c7c3b925910160405180910390a3505050565b6000610b288484610954565b90506000198114610b905781811015610b835760405162461bcd60e51b815260206004820152601d60248201527f45524332303a20696e73756666696369656e7420616c6c6f77616e63650000006044820152606401610433565b610b9084848484036109f8565b50505050565b6001600160a01b038316610bfa5760405162461bcd60e51b815260206004820152602560248201527f45524332303a207472616e736665722066726f6d20746865207a65726f206164604482015264647265737360d81b6064820152608401610433565b6001600160a01b038216610c5c5760405162461bcd60e51b815260206004820152602360248201527f45524332303a207472616e7366657220746f20746865207a65726f206164647260448201526265737360e81b6064820152608401610433565b6001600160a01b03831660009081526020819052604090205481811015610cd45760405162461bcd60e51b815260206004820152602660248201527f45524332303a207472616e7366657220616d6f756e7420657863656564732062604482015265616c616e636560d01b6064820152608401610433565b6001600160a01b03808516600090815260208190526040808220858503905591851681529081208054849290610d0b908490610f4e565b92505081905550826001600160a01b0316846001600160a01b03167fddf252ad1be2c89b69c2b068fc378daa952ba7f163c4a11628f55a4df523b3ef84604051610d5791815260200190565b60405180910390a3610b90565b6005546001600160a01b031633146108465760405162461bcd60e51b815260206004820181905260248201527f4f776e61626c653a2063616c6c6572206973206e6f7420746865206f776e65726044820152606401610433565b600580546001600160a01b038381166001600160a01b0319831681179093556040519116919082907f8be0079c531659141344cd1fd0a4f28419497f9722a3daafe3b4186f6b6457e090600090a35050565b80356001600160a01b0381168114610e2757600080fd5b919050565b600060208284031215610e3d578081fd5b610e4682610e10565b9392505050565b60008060408385031215610e5f578081fd5b610e6883610e10565b9150610e7660208401610e10565b90509250929050565b600080600060608486031215610e93578081fd5b610e9c84610e10565b9250610eaa60208501610e10565b9150604084013590509250925092565b60008060408385031215610ecc578182fd5b610ed583610e10565b946020939093013593505050565b600060208284031215610ef4578081fd5b5035919050565b6000602080835283518082850152825b81811015610f2757858101830151858201604001528201610f0b565b81811115610f385783604083870101525b50601f01601f1916929092016040019392505050565b60008219821115610f6157610f61610fe0565b500190565b600082610f8157634e487b7160e01b81526012600452602481fd5b500490565b6000816000190483118215151615610fa057610fa0610fe0565b500290565b600181811c90821680610fb957607f821691505b60208210811415610fda57634e487b7160e01b600052602260045260246000fd5b50919050565b634e487b7160e01b600052601160045260246000fdfea26469706673582212205d46e4cfc5ea2bee59093c607759c4dd8855ab6fce2f1cccf366231e690128f164736f6c63430008040033",
  "linkReferences": {},
  "deployedLinkReferences": {}
}